:02000000C42B0F
:10000800FF00030E8301B0000A08AF008A017008E0
:10001800A2007108A1007208A0008B1C1D282A16D6
:100028002A1F18282A141A286430AD002030AB0083
:100038008B100B1C7428AA192428051E26282E2884
:10004800051E2E28AA182B28851E2D282E28851E29
:100058002E2873282408F100F10D7110F001051AFB
:10006800F00A70087104A400851A3C2824123D285F
:1000780024162408393A031D52282A1F4A28013019
:10008800AD00051D49280230AD0752280519512831
:100098002D03F0007008AD00522885272408933AF4
:1000A800031D66282A1F5E28AD01051D5D28023044
:1000B800AD076628051965282D0AF0007008AD00FF
:1000C8006628C127051A6A28AA116B28AA15851A55
:1000D8006F28AA107028AA142A122030AB000B101F
:1000E8008B160B1D80282B03F0007008AB002B0823
:1000F800031D7F288B120B112208F0002108F10044
:100108002008F2002F088A00300E8300FF0E7F0EB1
:020118000900DC
:10011A008B1141308312BC0056275430BC0056273D
:10012A003908093C03189C282B30BC00562701309B
:10013A003906031DA3284130BC0056270230390670
:10014A00031DAA284830BC00562703303906031D70
:10015A00B7282630BC0056275730BC0056270D302A
:10016A00BC0056270B303906031DD3284930BC0082
:10017A0056275030BC0056275230BC0056273D3017
:10018A00BC0056273130BC0056273230BC005627F7
:10019A003030BC0056273030BC0056270C303902AC
:1001AA00031CDE283908133C031CDE284330BC003C
:1001BA0056270C303906031DF1284630BC00562755
:1001CA005530BC0056274E30BC0056273D30BC0087
:1001DA0056273130BC0056270D303906031D0A292F
:1001EA004D30BC0056274730BC0056274430BC006F
:1001FA0056273D30BC0056273130BC0056272C30DC
:10020A00BC0056273430BC0056270E303906031D71
:10021A0023294E30BC0056274D30BC0056274930A2
:10022A00BC0056273D30BC0056273230BC0056274A
:10023A002C30BC0056273230BC0056270F30390606
:10024A0003192C291030390603192C295429413055
:10025A00BC0056274C30BC0056275330BC005627EA
:10026A003D30BC0056270A302902031841292908C3
:10027A00303EBC0056274A293130BC00562729088F
:10028A00303EBC000A30BC0256270F303906031D27
:10029A0054292C30BC0056273130BC005627113067
:1002AA00390603195D291330390603195D297E2998
:1002BA0011303906031D68295230BC0056275330C5
:1002CA00BC0056276E294C30BC0056275630BC005D
:1002DA0056274C30BC0056273D30BC005627310803
:1002EA0003197B2930303107BC0056273530BC0052
:1002FA00562712303906031DA8294D30BC0056274F
:10030A004930BC0056274330BC0056273D30BC005C
:10031A0056273030BC0056272C30BC0056272508FB
:10032A00033C0318A2293130BC00562704302502A9
:10033A00BC003030BC075627A82906302507BC0068
:10034A003030BC0756271E303902031CB62939083B
:10035A002E3C031CB6294230BC0056275430BC0040
:10036A0056271F3039060319BF291E3039060319CB
:10037A00BF29D7295030BC0056274F30BC0056271A
:10038A005730BC0056274530BC0056275230BC00B7
:10039A0056273D30BC0056273908303EBC001E3077
:1003AA00BC02562720303906031D112A4830BC00EA
:1003BA0056274F30BC0056275330BC0056275430BE
:1003CA00BC0056273D30BC0056276430BC00562777
:1003DA006930BC0056276830BC0056276130BC0023
:1003EA0056277630BC0056272030BC0056274830A6
:1003FA00BC0056276530BC0056276130BC00562722
:10040A006430BC0056277330BC0056276530BC00E8
:10041A0056277430BC00562721303906031D242A7A
:10042A005630BC0056274930BC0056275330BC0012
:10043A0056273D30BC0056273130BC0056272230A3
:10044A003906031D402A5530BC0056274E30BC00E1
:10045A0056275030BC0056274130BC005627493039
:10046A00BC0056275230BC0056273D30BC005627E8
:10047A003030BC00562723303906031D7A2A503003
:10048A00BC0056274130BC0056274930BC005627CD
:10049A005230BC0056274330BC0056274630BC00B9
:1004AA0056274730BC0056273D30BC0056270D3032
:1004BA00BC00E92770080319672A32308312BC008E
:1004CA0056277A2A83123130BC0056272C30BC00BA
:1004DA0056273930BC0056273830BC0056273530ED
:1004EA00BC0056273230BC00562728303902031C7C
:1004FA009D2A39082E3C031C9D2A4130BC005627F0
:10050A005630BC0056275230BC0056274330BC0038
:10051A0056274F30BC0056275030BC0056273D3076
:10052A00BC0056273908303EBC002830BC0256278A
:10053A0024303906031DAA2A4130BC0056275430FC
:10054A00BC0056274130BC00562725303906031D0A
:10055A00B72A4130BC0056275430BC0056274830D1
:10056A00BC0056273C303902031CC52A39083F3CD7
:10057A00031CC52A4630BC0056274D30BC005627FE
:10058A003C303906031DDB2A4F30BC005627503059
:10059A00BC0056274530BC0056274E30BC005627B3
:1005AA003D30BC0056273030BC0056273D30390656
:1005BA00031DEE2A4330BC0056274C30BC00562798
:1005CA004F30BC0056275330BC0056274530BC007C
:1005DA0056273E303906031D0B2B5630BC005627D2
:1005EA004F30BC0056274C30BC0056275530BC0053
:1005FA0056274D30BC0056274530BC0056273D30A3
:10060A00BC0056272808303EBC0056273F30390622
:10061A00031D502B4630BC0056275230BC005627CB
:10062A004530BC0056275130BC0056273D30BC002F
:10063A0056272308BB001930230203182A2B383007
:10064A00BC0056274B30BB073C2B7D3023020318D6
:10065A00342B3930BC0056271930BB023C2B3130C1
:10066A00BC0056273030BC0056277D30BB020A300A
:10067A00F4003B08F000D8277008303EBC0056272B
:10068A000A30F4003B08F000D8277808F000700818
:10069A00303EBC00562746303906031DA02B533086
:1006AA00BC0056274930BC0056274D30BC0056279F
:1006BA005430BC0056274F30BC0056274E30BC0081
:1006CA0056274530BC0056273D30BC0056273130EE
:1006DA00BC0056272C30BC0056273230BC005627A7
:1006EA003530BC0056273030BC0056273030BC00AD
:1006FA0056272C30BC0056273230BC0056273030E3
:10070A00BC0056273030BC0056272C30BC00562778
:10071A003030BC0056272C30BC005627310803194C
:10072A009A2B30303107BC0056273530BC0056278B
:10073A003030BC0056270A30BC0056278B153A08C1
:10074A000319B62B0330FB008A30FC005530FD003C
:10075A00FD0BAD2BFC0BAD2BFB0BAD2B00000000F2
:10076A00C32B0230FB000430FC00BA30FD00FD0B45
:0E077A00BC2BFC0BBC2BFB0BBC2B00000800A7
:100788003C308316850003308312850083169F0151
:100798003030960007308312990097308316810015
:1007A80018308B0083122A136430AD00AB012A1273
:1007B800051AE02BAA11E12BAA15851AE52BAA1018
:1007C800E62BAA14AA122A10A401B401031E102CA5
:1007D8008319102C0C30B700FF30B800A32706305F
:1007E800FB001330FC00AD30FD00FD0BF92BFC0BBA
:1007F800F92BFB0BF92B000000008312AA17B90193
:100808000130BA008D20B9010130BA008D20B9013C
:100818000130BA008D20BA26FA3083169B008B1758
:1008280083122A1F902D2A1C1C2CAA1A1C2C2A164B
:100838002A18872C2A1E872CAA1E872CB41F752CD1
:1008480083303406031D2C2C0330B900BA018D20E7
:10085800340AF0007008B40085303406031D732C88
:10086800B4010D30BC00E927700883122E06031965
:100878004C2C000000000C30B700FF30B800A32754
:10088800000000000D308312B7002E08B800A3271F
:1008980011308312B7002608B800A3270000000013
:1008A80010308312B7002508B800A3270000000005
:1008B8000E308312B7002908B800A32700000000F3
:1008C8000F308312B7002708B800A32700000000E4
:1008D8008312AA17FA3083169B00BA26742C1527A0
:1008E800872CAA1F852C2C1C7E2C2A30B900BA0113
:1008F8008D20822C2930B900BA018D200130AC0638
:10090800872C0430AA0605198F2C2A1E8F2C2B0839
:10091800031D8F2CBA260A302D0203187F2D2D08AF
:10092800013C03183E2DB41FFE2C80303406031DF5
:10093800A32CAE0A2E08013C0318A32CAE0181306B
:100948003406031DB92C03302D06031DAD2CA60358
:10095800AE2CA60AFF302606031DB32CA6010A30CA
:100968002606031DB92C0930A60082303406031D63
:10097800CF2C03302D06031DC32CA503C42CA50AB8
:10098800FF302506031DC92CA5010A302506031DC5
:10099800CF2C0930A50083303406031DE62C033024
:1009A8002D06031DD92CA903DA2CA90A0030290623
:1009B800031DE02C1330A90014302906031DE62C72
:1009C8000130A90084303406031DFC2C03302D06A9
:1009D800031DF02CA703F12CA70AFF302706031DDF
:1009E800F62CA7010A302706031DFC2C0930A700A6
:1009F80015273B2DAA1F062D2D082B3EB900BA013D
:100A08008D203B2D2A1D222D02302D06031D0D2D74
:100A1800A30ACE302306031D122DA30103302D0691
:100A2800031D172DA303FF302306031D1D2DCD30F5
:100A3800A3003F30B900BA018D203B2D02302D06AE
:100A4800031D272DA80A07302806031D2D2D063063
:100A5800A80003302D06031D322DA803FF302806F9
:100A6800031D372DA8013E30B900BA018D2064302E
:100A7800AD007F2D2A187F2DAA1E7F2DAA1F492D74
:100A88002D082B3EB900BA018D2001302D06031D1B
:100A9800632D0130B900BA018D200530FB000F30FD
:100AA800FC00F130FD00FD0B572DFC0B572DFB0B07
:100AB800572DAA1F632D2430B900BA018D200030AC
:100AC8002D06031D7D2D0230B900BA018D20053099
:100AD800FB000F30FC00F130FD00FD0B712DFC0B0D
:100AE800712DFB0B712DAA1F7D2D2530B900BA0180
:100AF8008D206430AD002A18842DAA1E8C2D872DD8
:100B0800AA1E872D8C2D2A188B2DAA128C2DAA1679
:100B1800051D8F2D2A10A42D5F302D02031C9B2D3F
:100B28002D08693C031C9B2DB41B9B2D9D2DA625D0
:100B3800A42D83122B08031DA42D63000000B4010B
:040B4800142CA52D97
:100B4C008B1383122A1785100B30FB002630FC0008
:100B5C005D30FD00FD0BB02DFC0BB02DFB0BB02D53
:100B6C00000000008514B9010130BA008D20B901D4
:100B7C000130BA008D20B9010130BA008D200C3043
:100B8C00B900BA018D205F302D02013003180030FE
:100B9C00F0007018D32DAA13D42DAA17B41F2D2E24
:100BAC008030B4001E30B900BA018D200D30BC006D
:100BBC00E92770088312AE007008013C0318E82D79
:100BCC000130AE001130BC00E92770088312A6007A
:100BDC007008093C0318F42D0330A6001030BC003B
:100BEC00E92770088312A5007008093C0318002E31
:100BFC000430A5000E30BC00E92770088312A90050
:100C0C007008003A03190F2E2908133C031C0F2EF1
:100C1C00112E0130A9000F30BC00E9277008831297
:100C2C00A7007008093C03181D2E0230A7000B30DA
:100C3C00FB002630FC005D30FD00FD0B232EFC0B71
:100C4C00232EFB0B232E000000001527B32EAA1F0A
:100C5C00892E0C30BC00E9277008C03A0319812E8C
:100C6C001E308312B900BA018D201030FB003930D0
:100C7C00FC000D30FD00FD0B412EFC0B412EFB0B3F
:100C8C00412E000000000B30B900BA018D200D3050
:100C9C00B900BA018D200E30B900BA018D20033095
:100CAC00B900BA018D202030B900BA018D20233053
:100CBC00B900BA018D201F30B900BA018D20063061
:100CCC00FB001330FC00AD30FD00FD0B6B2EFC0B5C
:100CDC006B2EFB0B6B2E000000002130B900BA010B
:100CEC008D202230B900BA018D200C30B700C030F5
:100CFC00B800A327862E1F308312B900BA018D20AD
:100D0C0083122C10B32E1E30B900BA018D200A307C
:100D1C00BC00E92770088312A800000000000B300B
:100D2C00BC00E92770088312A3002808063C0318AE
:100D3C00A12E0330A8002308CD3C0318A62EA30136
:100D4C003E30B900BA018D203C30B900BA018D207B
:100D5C003F30B900BA018D202A116430AD00FA3051
:080D6C0083169B008B170800A1
:100D74008B138312B41B012FAA1FD32E1E30B9006C
:100D8400BA018D201030FB003930FC000D30FD001D
:100D9400FD0BCA2EFC0BCA2EFB0BCA2E0000000052
:100DA400012F0A30BC00E92770088312B500000047
:100DB40000000B30BC00E92770088312B600000065
:100DC40000003D30B900BA018D203508280603190A
:100DD400F02E0A30B7002808B800A327000000004E
:100DE4008312360823060319FC2E0B30B7002308A0
:100DF400B800A327831600000000FA309B0083127A
:100E040085100B30FB002630FC005D30FD00FD0B2F
:100E1400092FFC0B092FFB0B092F00000000851480
:060E24002A138B170800E1
:100E2A00803083123406031D272F0230B10046306A
:100E3A00B900BA018D202E08031D272F4630B900AC
:100E4A00BA018D2081303406031D352F2608B100E2
:100E5A001330B900BA018D204630B900BA018D208D
:100E6A0082303406031D432F2508B1001230B90021
:100E7A00BA018D204630B900BA018D20833034067C
:100E8A00031D4B2F0F30B900BA018D208430340670
:100E9A00031D552F2708B1001130B900BA018D2062
:020EAA0008003E
:100EAC00831205100230FC001330FD00FD0B5C2F8B
:100EBC00FC0B5C2F00000130F100710803197A2F34
:100ECC0071083C05F00003196D2F05146E2F0510E9
:100EDC000230FC001330FD00FD0B722FFC0B722F47
:100EEC000000F10D7110632F05140230FC0013305B
:0E0EFC00FD00FD0B7F2FFC0B7F2F0000080078
:100F0A000A308312340203188D2F0A30B400A22F3C
:100F1A003408133C0318A12F1E3034020318A12FE2
:100F2A0016303406031D9C2F8030B400A02F340ADB
:0C0F3A00F0007008B400A22FB401080001
:100F460083169C1CA82F0000A32F83123708831634
:100F56009B008312380883169A009C131C150B08F5
:100F6600F0008B1355309D00AA309D009C14F01B99
:0C0F7600BE2F8B13BF2F8B171C1108001F
:100F820083123408093C0318D62F14303402031894
:100F9200D62F0B303406031DD12F1430B400D52FB9
:0E0FA200340AF0007008B400D72FB401080024
:100FB00083120313F8010830FC00700DF80D74085B
:100FC000F8020318E52FF8070310F00DFC0BDD2FD6
:020FD000080017
:100FD20083123C0883169B009C131C141A08F00011
:020FE200080005
:02400E00E402CA
:020000040000FA
:10420000FF00FF00FF00FF00FF00FF00FF00FF00B6
:10421000FF00FF00FF00FF00FF00FF00FF00FF00A6
:10422000FF00FF00FF00FF00FF00FF00FF00FF0096
:10423000FF00FF00FF00FF00FF00FF00FF00FF0086
:10424000FF00FF00FF00FF00FF00FF00FF00FF0076
:10425000FF00FF00FF00FF00FF00FF00FF00FF0066
:10426000FF00FF00FF00FF00FF00FF00FF00FF0056
:10427000FF00FF00FF00FF00FF00FF00FF00FF0046
:10428000FF00FF00FF00FF00FF00FF00FF00FF0036
:10429000FF00FF00FF00FF00FF00FF00FF00FF0026
:1042A000FF00FF00FF00FF00FF00FF00FF00FF0016
:1042B000FF00FF00FF00FF00FF00FF00FF00FF0006
:1042C000FF00FF00FF00FF00FF00FF00FF00FF00F6
:1042D000FF00FF00FF00FF00FF00FF00FF00FF00E6
:1042E000FF00FF00FF00FF00FF00FF00FF00FF00D6
:1042F000FF00FF00FF00FF00FF00FF00FF00FF00C6
:10430000FF00FF00FF00FF00FF00FF00FF00FF00B5
:10431000FF00FF00FF00FF00FF00FF00FF00FF00A5
:10432000FF00FF00FF00FF00FF00FF00FF00FF0095
:10433000FF00FF00FF00FF00FF00FF00FF00FF0085
:10434000FF00FF00FF00FF00FF00FF00FF00FF0075
:10435000FF00FF00FF00FF00FF00FF00FF00FF0065
:10436000FF00FF00FF00FF00FF00FF00FF00FF0055
:10437000FF00FF00FF00FF00FF00FF00FF00FF0045
:10438000FF00FF00FF00FF00FF00FF00FF00FF0035
:10439000FF00FF00FF00FF00FF00FF00FF00FF0025
:1043A000FF00FF00FF00FF00FF00FF00FF00FF0015
:1043B000FF00FF00FF00FF00FF00FF00FF00FF0005
:1043C000FF00FF00FF00FF00FF00FF00FF00FF00F5
:1043D000FF00FF00FF00FF00FF00FF00FF00FF00E5
:1043E000FF00FF00FF00FF00FF00FF00FF00FF00D5
:1043F000FF00FF00FF00FF00FF00FF00FF00FF00C5
:00000001FF

